:020000040000fa
:080000000002040000000000f2
:020000040000fa
:0400080004030000ed
:020000040000fa
:04000c00e405000007
:020000040000fa
:04001000f6050000f1
:020000040000fa
:04001400ec050000f7
:020000040000fa
:04001800fe050000e1
:020000040000fa
:04001c0004030000d9
:020000040000fa
:0400200004030000d5
:020000040000fa
:0400240004030000d1
:020000040000fa
:04002800ac05000023
:020000040000fa
:04002c0004030000c9
:020000040000fa
:0400300004030000c5
:020000040000fa
:0400340004030000c1
:020000040000fa
:0400380004030000bd
:020000040000fa
:04003c0004030000b9
:020000040000fa
:0400400004030000b5
:020000040000fa
:0400440004030000b1
:020000040000fa
:0400480004030000ad
:020000040000fa
:04004c0004030000a9
:020000040000fa
:0400500004030000a5
:020000040000fa
:040054000c05000097
:020000040000fa
:040058000605000099
:020000040000fa
:04005c000403000099
:020000040000fa
:040060000403000095
:020000040000fa
:040064000403000091
:020000040000fa
:04006800040300008d
:020000040000fa
:04006c000403000089
:020000040000fa
:040070000403000085
:020000040000fa
:040074000403000081
:020000040000fa
:040078009c050000e3
:020000040000fa
:04007c000403000079
:020000040000fa
:040080000403000075
:020000040000fa
:040084000403000071
:020000040000fa
:04008800040300006d
:020000040000fa
:04008c000403000069
:020000040000fa
:040090000403000065
:020000040000fa
:040094000403000061
:020000040000fa
:04009800040300005d
:020000040000fa
:04009c00a4050000b7
:020000040000fa
:0400a0000403000055
:020000040000fa
:0400a4000403000051
:020000040000fa
:0400a800040300004d
:020000040000fa
:0400ac000403000049
:020000040000fa
:0400b0000403000045
:020000040000fa
:0400b4000403000041
:020000040000fa
:0400b800040300003d
:020000040000fa
:0400bc000403000039
:020000040000fa
:0400c0000403000035
:020000040000fa
:0400c4000403000031
:020000040000fa
:0400c800040300002d
:020000040000fa
:0400cc000403000029
:020000040000fa
:0400d0000403000025
:020000040000fa
:0400d4000403000021
:020000040000fa
:0400d800040300001d
:020000040000fa
:0400dc000403000019
:020000040000fa
:0400e0000403000015
:020000040000fa
:0400e4000403000011
:020000040000fa
:0400e800040300000d
:020000040000fa
:0400ec000403000009
:020000040000fa
:0400f0000403000005
:020000040000fa
:0400f4000403000001
:020000040000fa
:0400f80004030000fd
:020000040000fa
:0400fc0004030000f9
:020000040000fa
:0401000004030000f4
:020000040000fa
:0401040004030000f0
:020000040000fa
:0401080004030000ec
:020000040000fa
:04010c0004030000e8
:020000040000fa
:0401100004030000e4
:020000040000fa
:0401140004030000e0
:020000040000fa
:0401180004030000dc
:020000040000fa
:04011c0004030000d8
:020000040000fa
:0401200004030000d4
:020000040000fa
:0401240004030000d0
:020000040000fa
:0401280004030000cc
:020000040000fa
:04012c0004030000c8
:020000040000fa
:0401300004030000c4
:020000040000fa
:0401340004030000c0
:020000040000fa
:0401380004030000bc
:020000040000fa
:04013c0004030000b8
:020000040000fa
:0401400004030000b4
:020000040000fa
:0401440004030000b0
:020000040000fa
:0401480004030000ac
:020000040000fa
:04014c0004030000a8
:020000040000fa
:0401500004030000a4
:020000040000fa
:0401540004030000a0
:020000040000fa
:04015800040300009c
:020000040000fa
:04015c000403000098
:020000040000fa
:040160000403000094
:020000040000fa
:040164000403000090
:020000040000fa
:04016800040300008c
:020000040000fa
:04016c000403000088
:020000040000fa
:040170000403000084
:020000040000fa
:040174000403000080
:020000040000fa
:04017800040300007c
:020000040000fa
:04017c000403000078
:020000040000fa
:040180000403000074
:020000040000fa
:040184000403000070
:020000040000fa
:04018800040300006c
:020000040000fa
:04018c000403000068
:020000040000fa
:040190000403000064
:020000040000fa
:040194000403000060
:020000040000fa
:04019800040300005c
:020000040000fa
:04019c000403000058
:020000040000fa
:0401a0000403000054
:020000040000fa
:0401a4000403000050
:020000040000fa
:0401a800040300004c
:020000040000fa
:0401ac000403000048
:020000040000fa
:0401b0000403000044
:020000040000fa
:0401b4000403000040
:020000040000fa
:0401b800040300003c
:020000040000fa
:0401bc000403000038
:020000040000fa
:0401c0000403000034
:020000040000fa
:0401c4000403000030
:020000040000fa
:0401c800040300002c
:020000040000fa
:0401cc000403000028
:020000040000fa
:0401d0000403000024
:020000040000fa
:0401d4000403000020
:020000040000fa
:0401d800040300001c
:020000040000fa
:0401dc000403000018
:020000040000fa
:0401e0000403000014
:020000040000fa
:0401e4000403000010
:020000040000fa
:0401e800040300000c
:020000040000fa
:0401ec000403000008
:020000040000fa
:0401f0000403000004
:020000040000fa
:0401f4000403000000
:020000040000fa
:0401f80004030000fc
:020000040000fa
:0401fc0004030000f8
:020000040000fa
:0402080004030000eb
:020000040000fa
:04020c0004030000e7
:020000040000fa
:0402100004030000e3
:020000040000fa
:0402140004030000df
:020000040000fa
:0402180004030000db
:020000040000fa
:04021c0004030000d7
:020000040000fa
:0402200004030000d3
:020000040000fa
:0402240004030000cf
:020000040000fa
:0402280004030000cb
:020000040000fa
:04022c0004030000c7
:020000040000fa
:0402300004030000c3
:020000040000fa
:0402340004030000bf
:020000040000fa
:0402380004030000bb
:020000040000fa
:04023c0004030000b7
:020000040000fa
:0402400004030000b3
:020000040000fa
:0402440004030000af
:020000040000fa
:0402480004030000ab
:020000040000fa
:04024c0004030000a7
:020000040000fa
:0402500004030000a3
:020000040000fa
:04025400040300009f
:020000040000fa
:04025800040300009b
:020000040000fa
:04025c000403000097
:020000040000fa
:040260000403000093
:020000040000fa
:04026400040300008f
:020000040000fa
:04026800040300008b
:020000040000fa
:04026c000403000087
:020000040000fa
:040270000403000083
:020000040000fa
:04027400040300007f
:020000040000fa
:04027800040300007b
:020000040000fa
:04027c000403000077
:020000040000fa
:040280000403000073
:020000040000fa
:04028400040300006f
:020000040000fa
:04028800040300006b
:020000040000fa
:04028c000403000067
:020000040000fa
:040290000403000063
:020000040000fa
:04029400040300005f
:020000040000fa
:04029800040300005b
:020000040000fa
:04029c000403000057
:020000040000fa
:0402a0000403000053
:020000040000fa
:0402a400040300004f
:020000040000fa
:0402a800040300004b
:020000040000fa
:0402ac000403000047
:020000040000fa
:0402b0000403000043
:020000040000fa
:0402b400040300003f
:020000040000fa
:0402b800040300003b
:020000040000fa
:0402bc000403000037
:020000040000fa
:0402c0000403000033
:020000040000fa
:0402c400040300002f
:020000040000fa
:0402c800040300002b
:020000040000fa
:0402cc000403000027
:020000040000fa
:0402d0000403000023
:020000040000fa
:0402d400040300001f
:020000040000fa
:0402d800040300001b
:020000040000fa
:0402dc000403000017
:020000040000fa
:0402e0000403000013
:020000040000fa
:0402e400040300000f
:020000040000fa
:0402e800040300000b
:020000040000fa
:0402ec000403000007
:020000040000fa
:0402f0000403000003
:020000040000fa
:0402f40004030000ff
:020000040000fa
:0402f80004030000fb
:020000040000fa
:0402fc0004030000f7
:020000040000fa
:0403000004030000f2
:020000040000fa
:0403040004030000ee
:020000040000fa
:0403080004030000ea
:020000040000fa
:04030c0004030000e6
:020000040000fa
:0403100004030000e2
:020000040000fa
:0403140004030000de
:020000040000fa
:0403180004030000da
:020000040000fa
:04031c0004030000d6
:020000040000fa
:0403200004030000d2
:020000040000fa
:0403240004030000ce
:020000040000fa
:0403280004030000ca
:020000040000fa
:04032c0004030000c6
:020000040000fa
:0403300004030000c2
:020000040000fa
:0403340004030000be
:020000040000fa
:0403380004030000ba
:020000040000fa
:04033c0004030000b6
:020000040000fa
:0403400004030000b2
:020000040000fa
:0403440004030000ae
:020000040000fa
:0403480004030000aa
:020000040000fa
:04034c0004030000a6
:020000040000fa
:0403500004030000a2
:020000040000fa
:04035400040300009e
:020000040000fa
:04035800040300009a
:020000040000fa
:04035c000403000096
:020000040000fa
:040360000403000092
:020000040000fa
:04036400040300008e
:020000040000fa
:04036800040300008a
:020000040000fa
:04036c000403000086
:020000040000fa
:040370000403000082
:020000040000fa
:04037400040300007e
:020000040000fa
:04037800040300007a
:020000040000fa
:04037c000403000076
:020000040000fa
:040380000403000072
:020000040000fa
:04038400040300006e
:020000040000fa
:04038800040300006a
:020000040000fa
:04038c000403000066
:020000040000fa
:040390000403000062
:020000040000fa
:04039400040300005e
:020000040000fa
:04039800040300005a
:020000040000fa
:04039c000403000056
:020000040000fa
:0403a0000403000052
:020000040000fa
:0403a400040300004e
:020000040000fa
:0403a800040300004a
:020000040000fa
:0403ac000403000046
:020000040000fa
:0403b0000403000042
:020000040000fa
:0403b400040300003e
:020000040000fa
:0403b800040300003a
:020000040000fa
:0403bc000403000036
:020000040000fa
:0403c0000403000032
:020000040000fa
:0403c400040300002e
:020000040000fa
:0403c800040300002a
:020000040000fa
:0403cc000403000026
:020000040000fa
:0403d0000403000022
:020000040000fa
:0403d400040300001e
:020000040000fa
:0403d800040300001a
:020000040000fa
:0403dc000403000016
:020000040000fa
:0403e0000403000012
:020000040000fa
:0403e400040300000e
:020000040000fa
:0403e800040300000a
:020000040000fa
:0403ec000403000006
:020000040000fa
:0403f0000403000002
:020000040000fa
:0403f40004030000fe
:020000040000fa
:0403f80004030000fa
:020000040000fa
:0403fc0004030000f6
:020000040000fa
:10040000af9520000e7f22000e0188000000000042
:10041000000020000000e000020032000001200087
:100420002002880014000700790007000000e000a7
:1004300003003a0040a32000010020000200370022
:100440000000200001002000810f70000100320038
:1004500014000700000020000000e000020032004d
:1004600000000200000000009809020000000000e7
:100470000040da000000fe004440a90020022000f5
:100480000000e000030032000020200090018800fe
:100490004440a800000006008a1f78008b1f7800e7
:1004a00000000600a1028800800478000000eb0034
:1004b0001f003700e284440054a0b4009905ba003c
:1004c000e284440054a0b4009906ba00e2844400d7
:1004d00054a0b4000006eb00476fde00fd07b20039
:1004e000ae018800636ce10003003a00eaff0700f8
:1004f0000000eb000e003700606ce10008003a00dd
:10050000004deb000a05e800020039003420ec0041
:100510000af0a0008b05e900f9ff3e000400370057
:100520006168e100010032000086eb000b0007006b
:1005300019c7ba001905ba000e04e00003003a001a
:100540000a00e000dbff3a0000000600fe07b200f0
:10055000ae0288008a047800f5ff37000cd0a300b3
:10056000e20f4d001c00390089027800354dba00b9
:100570000a05e800020039003420ec000af0a0006f
:100580008b05e9000f003200254dba000a05e8008e
:10059000020039003420ec000af0a0008b05e900cd
:1005a000080032000c00e0000600320015cdba0051
:1005b0000a05e800020039003420ec000af0a0002f
:1005c0008b05e9008984e80054a0b4000b00e0002a
:1005d000e2ff3a00000006009902ba00055d7800cb
:1005e0008b05e900f7ff3200c82ade00055d7800c0
:1005f0008b05e900f3ff32000c00e000f1ff320050
:1006000019ddba00eeff37000040da000000fe00fe
:0406100000000500e1
:020000040000fa
:100614006d610000632000006a6f0000696e0000d5
:10062400206f000074610000610d00000a000000ea
:100634006d610000632000007478000020630000f6
:100644006e66000020310000200000000d0a00004a
:0406540000000000a2
:020000040000fa
:100658000800fa0020079800310798000000eb0016
:10066800000f78000000eb00100798001e007800cb
:10067800be00900000804000ae009000ef80600057
:10068800a2942000e2c07800014878001e0fe8001c
:100698002e0090004400de00200798002e009000f5
:1006a8000000e000f1ff3a00320037001e00900021
:1006b800be009000008040009e0090003e01900027
:1006c80081004100114178009e0090009e8010003a
:1006d8008100e900be0190008180410091407800ce
:1006e80081406900014878001e0090001e0010003b
:1006f8000000e900be009000008040009e009000cd
:100708009e8010008100e9003e01900081004100b8
:10071800114178009e009000be0190008180410048
:100728009140780081406900014878001e009000df
:10073800be009000008040009e0090003e019000a6
:1007480081004100114178009e0090009e801000b9
:100758008100e900be01900081804100914078004d
:1007680081406900014878001e0090000000e80000
:10077800100798009e0078002000200000017800f3
:10078800110009008200d800800078001e00900047
:10079800808f5000c5ff3c001e007800be0090000e
:1007a800008040008040eb00014878001e0078007f
:1007b8000080fa00000006000600fa0020079800f2
:1007c800ae00900011079800b0002000000f7800dc
:1007d800d09320001e0040008040eb0001487800c4
:1007e8002e0090000000e00003003d002e00900065
:1007f8000000ea00200798001e0fe900ae009000f4
:10080800a000200000017800110009008200d80033
:100818008000fd00004078000043b0008040780070
:10082800d09320001e00400001487800ae009000e0
:10083800a000200000017800110009008200d80003
:10084800200798002e0090000000e000eaff3a0020
:100858001e0090000000e00005003d001e0fe900aa
:10086800d09320001e004000d1c2b3000148780098
:100878009e007800d0932000008040000080fa009d
:10088800000006000000fa000001eb0060042000f0
:100898007105200003102000804978008149780004
:1008a8008249780000022300100888000621ef0022
:1008b8006821ef006a21ef006c21ef000080fa0048
:1008c800000006000000fa008421ef008e21ef00ee
:1008d80000042000c00c8800f0782000000c88007c
:1008e800f0fe2e00500c8800f03b2000a00c880081
:1008f8005620ef005820ef005a20ef006e20ef003e
:1009080000082000800388007220ef008621ef0095
:100918009021ef009a21ef00c0002000400c8800d1
:1009280010242600900c880070002000e00c88003d
:1009380001088000f00b20000081600060042000a6
:100948007105200003102000804978008149780053
:1009580082497800611f800000fc2f000080600041
:100968003000b300601f8800811d800000fc2f004c
:10097800008060007001b300801d880000088000be
:10098800000178000260a0006004200071052000ca
:100998000310200080497800814978008249780056
:1009a8000080fa00000006000000fa00110680002e
:1009b800f08f2f00008060000080a00010068800e3
:1009c80041058000f0ff28000080600000c0a00002
:1009d800400588000080fa00000006000000fa00c8
:1009e8004c22ef00007d20007012880000012800d2
:1009f800801288008460a9009460a8000080fa0032
:100a0800000006000000fa000080fa00004006001e
:100a1800809fbe00829fbe000000fa0001c8bf0090
:100a2800e14f400001003a000168ef0001c8bf0033
:100a38008080fb003228800082417800e28120001b
:100a480003f178000040e80001e8b7008560a900dc
:100a58000225a9000080fa004f01be004f00be0029
:100a6800004006000000fa008000200000288800ee
:100a78000225ef0040042000402888000a25ef00e6
:100a88000c25ef000e25ef001025ef001225ef00d2
:100a98001425ef009560a80001e5a8000345a8000b
:100aa8000080fa00000006000200fa00004f7800fb
:100ab8000000000011288000002020000080600055
:100ac8000000e000fbff3a001e00fb002028880021
:100ad8000080fa00000006000400fa0010079800e1
:100ae8000040eb00004f7800060037001e00900021
:100af80010407800ecff07001e0090000000e8009e
:100b0800100798001e009000104f78001e407800d3
:100b18000004e000f5ff3a000080fa00000006003b
:100b2800000f78009e007800e1408800ffff370042
:100b38000000fa008680a9000080fa000040060044
:100b48000000fa0087a0a9000080fa000040060013
:100b5800801f78000200fa0010c0b30002e8b70056
:100b68000040eb00004f780020c1b300004f780030
:100b780020c1b300004f78008400a9009400a900a8
:100b88000080fa004f007800004006000000fa00dc
:100b98008400a9008200a9009400a8000080fa003f
:100ba800000006000000fa00d091200080077800bd
:100bb80050932000000188000080fa000000060021
:100bc8003600f8008020a9000000eb00d4ff0700e1
:100bd8003600f800f3ff07008040a900100020004d
:100be800cfff07003600f8008060a9002000200031
:100bf800cbff07003600f8008080a90030002000f5
:100c0800c7ff07000000fa00e00420007017880002
:100c18000020280080178800f422ef008a40a900ed
:100c28000080fa00000006000200fa000000eb0055
:100c3800000f7800f0a2a900000a2000010020009f
:100c48001b020700f002a8000000000007003700a0
:100c58000001200001002000150207001e0fe80017
:100c68001e007800f40f500005003c00801780003b
:100c7800610060000000e000f5ff3a000100370065
:100c88000000000000022000010020000802070008
:100c98000080fa00000006000200fa000000eb00e5
:100ca800000f7800f0a2a900000a2000010020002f
:100cb800ff010700f042a80000000000070037000d
:100cc8000001200001002000f90107001e0fe800c4
:100cd8001e007800f40f500005003c0080178000cb
:100ce800640060000000e000f5ff3a0001003700f2
:100cf80000000000f042a9000002200001002000ce
:100d0800eb0107000080fa00000006000200fa006c
:100d18000000eb00000f7800f0a2a900000a2000f4
:100d280001002000e2010700f022a80000000000f6
:100d3800070037000001200001002000dc01070047
:100d48001e0fe8001e007800f40f500005003c005c
:100d580080178000620060000000e000f5ff3a00a4
:100d68000100370000000000000220000100200000
:100d7800cf0107000080fa00000006000200fa0018
:100d88000000eb00000f7800f022a800000000002f
:100d9800070037000001200001002000c4010700ff
:100da8001e0fe8001e007800f40f500005003c00fc
:100db80080178000620060000000e000f5ff3a0044
:100dc80001003700000000000002200001002000a0
:100dd800b70107000080fa00000006000200fa00d0
:100de8000000eb00000f7800f042a8000700370071
:100df8000002200001002000ad0107001e0fe800de
:100e08001e007800f40f500005003c008017800099
:100e1800640060000000e000f5ff3a0001003700c0
:100e280000000000f062a9008a40a900f4e2a900cd
:100e3800f542a900000a2000010020009c010700db
:100e48000080fa00000006000400fa00100798006d
:100e580000000000a0178000610060000000e000b2
:100e6800fcff3a008a40a9001e0090006017880025
:100e78000000eb00000f780009003700a117800080
:100e880000002400008060000000e000090032003b
:100e98000001200001002000850107001e0fe80066
:100ea800301f20009e007800808f5000f3ff340030
:100eb8000100370000000000401f20009e0078005d
:100ec800808f500002003a0010c0b3000c003700b9
:100ed800a117800000002800008060000000e000ea
:100ee80003003200bdff070010c0b3000400370044
:100ef80000022000010020006d0107000040eb0007
:100f08000080fa00000006000400fa000000eb0070
:100f1800000f78000040eb0020479800f062a8001e
:100f2800050037001e0fe800007d20009e007800b5
:100f3800808f500005003c00a01780006200600010
:100f48000000e000f7ff3200010037000000000059
:100f580050178000204798002e4090000080fa002b
:100f6800000006000400fa000000eb00000f780003
:100f78000040eb0020479800f062a8000500370009
:100f88001e0fe800007d20009e007800808f500032
:100f980005003c00a0178000620060000000e0002f
:100fa800f7ff320001003700000000000000eb00ee
:100fb800000f78005017800020479800000220009a
:100fc800010020003a010700000220000100200073
:100fd800370107002e4090000080fa00000006004c
:100fe8000000fa0000000000801780007f00600009
:100ff8000000e000fcff3a000080fa000000060054
:101008000000fa00f0a2a90000000000f082a90088
:10101800f062a900f042a900f022a900f002a9009c
:10102800f082a8000080fa00000006000000fa0024
:10103800f0a2a80000000000f062a900f042a90098
:10104800f022a900f002a900f082a8000000000028
:1010580080178000700060000000e000fcff3a008c
:101068000080fa00000006000400fa0020479800fb
:10107800edfe07008003200073ff07002e4090005c
:101088000080fb0070ff070020ff0700900320008e
:101098006dff0700b3ff0700004f7800e3ff07006c
:1010a800fdfe07001e4078000080fa0000000600e0
:1010b8000200fa00004f780011479800dafe070096
:1010c80030c0b30000e8b700800320005eff0700cf
:1010d80040c0b30000e8b7001e80fb005aff0700bd
:1010e80050c0b30000e8b7001e4090000080fb002d
:1010f80055ff070060c0b30000e8b700cbff07004a
:10110800e5fe07000080fa00000006000400fa006f
:1011180020479800c4fe0700000d20004aff070082
:10112800b7ff07002e4090000080fb0046ff070035
:10113800b3ff0700f5fe0700100d200042ff07006f
:10114800afff070087ff0700004f7800acff0700dc
:101158000040eb001047980020c1b30010479800ea
:1011680020c1b30010479800b0ff0700cafe07006f
:101178001e4078000080fa00000006000400fa0013
:1011880020479800a8fe0700000d20002eff07004a
:10119800500720002cff0700dcfe0700100d200080
:1011a80029ff07006fff0700004f78009fff070027
:1011b800b9fe07001e4078000080fa000000060013
:1011c8000600fa0010c0b300a7ff0700004f780020
:1011d8001e417800318020008248780020c0b3008a
:1011e800a1ff0700104798001e00fb00c800dd00a3
:1011f8001e4090000000fb00010070007040880055
:101208001e00fb00c800dd001e4090000000fb002f
:1012180001007000a04088001e40780007e8b70071
:101228001e40900006e8b7001e417800918020001b
:10123800824878001e419000818020008248780012
:1012480030c0b30088ff0700204798002e41900067
:10125800418020008248780040c0b30082ff070028
:10126800304798002e4090000000fb00c800dd00c9
:101278003e4090000000fb000100700080408800a4
:101288002e419000b1802000824878003e419000b5
:10129800a18020008248780050c0b30072ff070088
:1012a800404798004e4190005180200082487800c5
:1012b80060c0b3006cff0700504798004e40900094
:1012c8000000fb00c800dd005e4090000000fb004d
:1012d80001007000904088004e419000d1802000ad
:1012e800824878005e419000c180200082487800e2
:1012f8000080fa00000006000000fa00d0c0b30029
:1013080059ff0700fa4f50000200320000c0eb00fe
:1013180000e8b70011c0b300a0c2b30064ff070023
:101328000080fa00000006000600fa0055fd0700dc
:1013380064fd07009cfd070014fe0700c9fd0700b7
:1013480030fe070000802400811e2000580007009e
:10135800a0302800e0fd070000002200117a2000dc
:1013680053000700010037000000000010c1b3005f
:101378003dff07001ae8b700a0c2b3003aff070014
:101388001be8b7008eff07000e80e8008000780099
:1013980050172000aefc0700000f78000040220024
:1013a800410f20004200070002c8bf00e14f500073
:1013b800edff3a00a0312800c7fd0700404080003b
:1013c8008e80e800a2fc07002e409000b6fd0700c2
:1013d8003e409000b4fd07004e409000b2fd07006b
:1013e8005e409000b0fd0700504080008e80e8000d
:1013f80097fc07002e409000abfd07003e40900090
:10140800a9fd07004e409000a7fd07005e40900030
:10141800a5fd0700604080008e80e8008cfc070076
:101428002e409000a0fd07003e4090009efd070062
:101438004e4090009cfd07005e4090009afd07001a
:1014480080322800a4fd070000802400811e2000af
:10145800170007000268ef009400a800c3ff3700d8
:020000040000fa
:101468004a090000100000008200000030313200fc
:10147800333435003637380039414200434445009b
:10148800460000001e0800002c010000800000003b
:10149800000800001c000000800000001c0800007c
:1014a8000200000082000000ffff000000000000b2
:020000040000fa
:1014b800f03fb1000180b10006003500ee030900dd
:1014c80000000000403fb1000180b100fbff3d007b
:1014d8001000b000203fb000020035000080090075
:0814e8000000000000000600f6
:020000040000fa
:020000040002f8
:04aff0003fb200006c
:020000040000fa
:020000040002f8
:04aff400fff6000064
:020000040000fa
:020000040002f8
:04aff8009fb90000fd
:020000040000fa
:020000040002f8
:04affc003f3d0000d5
:00000001FF
